:100000000C945D000C9485000C9485000C94850084
:100010000C9485000C9485000C9485000C9485004C
:100020000C9485000C9485000C9485000C94DE03E0
:100030000C9485000C9485000C9485000C9485002C
:100040000C943C030C9485000C94AC030C94860334
:100050000C9485000C9485000C9485000C9485000C
:100060000C9485000C94850000000008000201003B
:100070000003040700000000000000000000000072
:10008000250028002B0000000000240027002A0083
:10009000040404040404040402020202020203032E
:1000A0000303030301020408102040800102040836
:1000B00010200102040810209A0411241FBECFEF63
:1000C000D8E0DEBFCDBF11E0A0E0B1E0E2E2FEE0AB
:1000D00002C005900D92A231B107D9F721E0A2E14B
:1000E000B1E001C01D92A13EB207E1F710E0CDE5FD
:1000F000D0E004C02197FE010E940907CC35D1074A
:10010000C9F70E94F7040C940F070C940000CF92DB
:10011000DF92EF92FF92DC01A03282E0B807D4F5C3
:10012000A53BB10514F0A4EBB0E04091DF0128E855
:1001300030E0241B310947FD3395220F331F220F76
:10014000331F6901330FEE08FF084091E00128E5F5
:1001500032E0241B310947FD3395220F331F220F54
:10016000331F032E000C440B550B2C193D094E096F
:100170005F09B7FF02C0B0E0A0E00E94BD0624EB1B
:1001800030E040E050E00E949306C20ED31EE41E11
:10019000F51ED601E091DE01EC3080F52091DF0103
:1001A00088E890E0821B910927FD9395880F991F9D
:1001B000880F991FA817B90784F02091E00188E5FE
:1001C00092E0821B910927FD9395880F991F880F54
:1001D000991FA817B9070CF4CD010297880F991F32
:1001E0004FB7F8942E2F30E0F901EE0FFF1FE20F0A
:1001F000F31FE754FE4F928381834FBFFF90EF9030
:10020000DF90CF90089590E0FC01EC55FF4F2491D2
:1002100080579F4FFC018491882399F090E0880FCC
:10022000991FFC01EA57FF4FA591B491FC01E458D6
:10023000FF4F859194918FB7F894EC91E22BEC935A
:100240008FBF089590E0FC01E859FF4F2491FC0115
:10025000EC55FF4F3491FC01E057FF4FE491EE2342
:10026000C9F0222339F0233001F1A8F4213019F12B
:10027000223029F1F0E0EE0FFF1FE458FF4FA59167
:10028000B4918FB7F894EC91611126C030953E235C
:100290003C938FBF08952730A9F02830C9F024304F
:1002A00049F7809180008F7D03C0809180008F7717
:1002B00080938000DFCF84B58F7784BDDBCF84B59A
:1002C0008F7DFBCF8091B0008F778093B000D2CF2D
:1002D0008091B0008F7DF9CF3E2BDACF3FB7F894F5
:1002E0008091140190911501A0911601B091170110
:1002F00026B5A89B05C02F3F19F00196A11DB11D81
:100300003FBFBA2FA92F982F8827BC01CD01620FBC
:10031000711D811D911D42E0660F771F881F991F77
:100320004A95D1F70895AF92BF92CF92DF92EF92A4
:10033000FF920F931F93CF93DF936C017B018B018F
:10034000040F151FEB015E01AE18BF08C017D107DF
:1003500059F06991D601ED91FC910190F081E02D69
:10036000C6010995892B79F7C501DF91CF911F91BE
:100370000F91FF90EF90DF90CF90BF90AF900895D6
:10038000FC01538D448D252F30E0842F90E0821B9B
:10039000930B541710F0CF96089501970895FC0120
:1003A000918D828D981761F0A28DAE0FBF2FB11D78
:1003B0005D968C91928D9F5F9F73928F90E00895D0
:1003C0008FEF9FEF0895FC01918D828D981731F08A
:1003D000828DE80FF11D858D90E008958FEF9FEFDE
:1003E00008952FB7F8948091180190911901A09168
:1003F0001A01B0911B012FBF809324019093250116
:10040000A0932601B09327018CE191E00E94E301C3
:1004100097FF26C02FB7F894809118019091190189
:10042000A0911A01B0911B012FBF4091240150915E
:1004300025016091260170912701841B950BA60B65
:10044000B70B4091200150912101609122017091E0
:10045000230184179507A607B707B0F28FEF9FEF28
:100460000895CF92DF92EF92FF92CF930E94F10115
:10047000FC0197FD4EC08D32910521F0C0970A977F
:1004800008F040C0C12CD12C7601C0E0E130F1056C
:10049000D1F0ED32F105D9F1CF01C0970A9798F468
:1004A000AAE0B0E0A70196010E94B2066F01FF0F1B
:1004B000EE08FF08C60ED71EE81EF91E80E3C81A14
:1004C000D108E108F1088CE191E00E94CF010E947F
:1004D000F101FC01C0970A97C8F2E130F105B1F2D1
:1004E000CC2341F0F094E094D094C094C11CD11C72
:1004F000E11CF11CC701B601CF91FF90EF90DF9096
:10050000CF9008958CE191E00E94CF01AFCFC1E080
:10051000DACFC12CD12C7601EDCFFC01918D228D4B
:10052000892F90E0805C9F4F821B91098F739927E0
:1005300008958CE191E00E948D0221E0892B09F45D
:1005400020E0822F089580E090E0892B29F00E941E
:10055000990281110C9400000895FC01A48DA80F4C
:10056000B92FB11DA35ABF4F2C91848D90E00196F5
:100570008F739927848FA689B7892C93A089B18915
:100580008C91837080648C93938D848D981306C0B6
:100590000288F389E02D80818F7D80830895EF921A
:1005A000FF920F931F93CF93DF93EC0181E0888F2D
:1005B0009B8D8C8D98131AC0E889F989808185FFFD
:1005C00015C09FB7F894EE89FF896083E889F9899F
:1005D00080818370806480839FBF81E090E0DF91A1
:1005E000CF911F910F91FF90EF900895F62E0B8DF4
:1005F00010E00F5F1F4F0F731127E02E8C8D8E11AF
:100600000CC00FB607FCFACFE889F989808185FF15
:10061000F5CFCE010E94AD02F1CFEB8DEC0FFD2F97
:10062000F11DE35AFF4FF0829FB7F8940B8FEA89D0
:10063000FB8980818062CFCFCF93DF93EC01888DDF
:100640008823B9F0AA89BB89E889F9898C9185FD4D
:1006500003C0808186FD0DC00FB607FCF7CF8C91DB
:1006600085FFF2CF808185FFEDCFCE010E94AD02E4
:10067000E9CFDF91CF9108951F920F920FB60F929D
:1006800011242F933F938F939F93AF93BF938091A8
:10069000180190911901A0911A01B0911B0130919C
:1006A000130123E0230F2D3758F50196A11DB11D2D
:1006B000209313018093180190931901A0931A01BC
:1006C000B0931B018091140190911501A091160126
:1006D000B09117010196A11DB11D80931401909353
:1006E0001501A0931601B0931701BF91AF919F918F
:1006F0008F913F912F910F900FBE0F901F901895E3
:1007000026E8230F0296A11DB11DD2CF1F920F9292
:100710000FB60F9211242F933F934F935F936F93D4
:100720007F938F939F93AF93BF93EF93FF938CE14E
:1007300091E00E94AD02FF91EF91BF91AF919F9127
:100740008F917F916F915F914F913F912F910F907A
:100750000FBE0F901F9018951F920F920FB60F9219
:1007600011242F938F939F93EF93FF93E0912C018C
:10077000F0912D018081E0913201F091330182FDF1
:100780001BC09081809135018F5F8F73209136015E
:10079000821741F0E0913501F0E0E45EFE4F958F65
:1007A00080933501FF91EF919F918F912F910F9041
:1007B0000FBE0F901F9018958081F4CF1F920F925B
:1007C0000FB60F9211242F933F934F935F936F9324
:1007D0007F938F939F93AF93BF93CF93DF93EF93C9
:1007E000FF9380911201C091DD01D0E087FF24C00A
:1007F0001092850010928400809112018F5F809387
:10080000120180911201082E000C990B8C179D0784
:1008100024F4809112018C30C4F180918400909175
:100820008500049680349C4908F47AC08091840045
:1008300090918500049676C080911201082E000CDC
:10084000990B8C179D07C4F6E09112018E2FEE0FC5
:10085000990BFC01EE0FFF1FE80FF91FE754FE4F45
:10086000808186FFC9CFE09112018E2FEE0F990B88
:10087000FC01EE0FFF1FE80FF91FE754FE4F8081C8
:1008800060E08F730E942201B7CF209184003091E5
:100890008500E09112018E2FEE0F990BFC01EE0FF7
:1008A000FF1FE80FF91FE754FE4F81819281820FED
:1008B000931F9093890080938800E09112018E2FFE
:1008C000EE0F990BFC01EE0FFF1FE80FF91FE75425
:1008D000FE4F808186FF11C0E09112018E2FEE0F36
:1008E000990BFC01EE0FFF1FE80FF91FE754FE4FB5
:1008F000808161E08F730E942201FF91EF91DF916F
:10090000CF91BF91AF919F918F917F916F915F91A7
:100910004F913F912F910F900FBE0F901F90189500
:1009200080E49CE990938900809388008FEF809306
:100930001201E3CF10921F0110921E0188EE93E086
:10094000A0E0B0E08093200190932101A0932201C8
:10095000B093230184E091E090931D0180931C01EA
:1009600085EC90E0909329018093280184EC90E03D
:1009700090932B0180932A0180EC90E090932D01BD
:1009800080932C0181EC90E090932F0180932E01B5
:1009900082EC90E0909331018093300186EC90E0FE
:1009A00090933301809332011092350110923601F9
:1009B00010923701109238018091DD018C3098F44B
:1009C00091E0980F9093DD018093DE0190E0FC01AF
:1009D000EE0FFF1FE80FF91FE754FE4F88EB9BE077
:1009E0009283818308958FEF8093DE010895789438
:1009F00084B5826084BD84B5816084BD85B5826024
:100A000085BD85B5816085BD80916E0081608093D4
:100A10006E0010928100809181008260809381003D
:100A2000809181008160809381008091800081604D
:100A3000809380008091B10084608093B1008091A8
:100A4000B00081608093B00080917A0084608093D0
:100A50007A0080917A00826080937A0080917A0097
:100A6000816080937A0080917A00806880937A0018
:100A70001092C100E0912C01F0912D0182E0808361
:100A8000E0912801F09129011082E0912A01F09172
:100A90002B018FEC808310923401E0913001F091B2
:100AA000310186E08083E0912E01F0912F01808159
:100AB00080618083E0912E01F0912F018081886018
:100AC0008083E0912E01F0912F01808180688083E6
:100AD000E0912E01F0912F0180818F7D80838091A4
:100AE000DE018C3008F050C089E00E940301809143
:100AF000DE01282F30E0F901EE0FFF1FE20FF31F98
:100B0000E754FE4F9081907C996090831092DF01B2
:100B10001092E0012CE0622F0E94F606829FB00145
:100B2000112430E020E0AB01420F531FFA01EE0F19
:100B3000FF1FE40FF51FE754FE4F908196FD16C08E
:100B40002F5F3F4F2C30310571F781110FC010928C
:100B5000800082E0809381001092850010928400D2
:100B6000B19A80916F00826080936F00E091DE0106
:100B70008E2F90E0FC01EE0FFF1FE80FF91FE754E6
:100B8000FE4F8081806480838AE590E00E94870028
:100B9000812C912C54018A9436E7232E30E0332E99
:100BA00000E010E08CE191E00E948D021816190619
:100BB0000CF043C08CE191E00E94CF010A97E9F567
:100BC0000E9431026B010E9431022B010E9431020E
:100BD000D2012CE330E00E940207A50194010E949B
:100BE000930629013A018CE3480E511C611C711CCB
:100BF000D601A058B109B7FF02C0B0E0A0E02FEFC6
:100C000030E00E9402076B017C0197E0F594E794C5
:100C1000D794C7949A95D1F7E601C201CC97CD97A6
:100C200018F4C2010E9487008EE00E940301209701
:100C3000A1F560E08EE00E9422010E946E012B016E
:100C40003C018AE0C82ED12CE12CF12C0E946E01CF
:100C50006419750986099709683E734081059105F5
:100C6000A8F3F1E0CF1AD108E108F10828EE420E0E
:100C700023E0521E611C711CC114D104E104F10473
:100C800029F70115110509F48DCF0E9499028823D7
:100C900009F488CF0E94000085CFCF3FD10511F421
:100CA00061E0C8CFF1018491833019F140F48130C3
:100CB000B1F08230C9F0C038D10594F7BACF87308F
:100CC00011F1883041F18430B1F780918000806269
:100CD00080938000D0928B00C0928A00AECF84B502
:100CE000806884BDC7BCA9CF84B5806284BDC8BC00
:100CF000A4CF80918000806880938000D09289008A
:100D0000C09288009ACF8091B00080688093B00034
:100D1000C092B30092CF8091B00080628093B00007
:100D2000C092B4008ACF052E97FB1EF400940E9457
:100D3000AA0657FD07D00E94C50607FC03D04EF453
:100D40000C94AA0650954095309521953F4F4F4FF2
:100D50005F4F089590958095709561957F4F8F4F67
:100D60009F4F08950E94E706A59F900DB49F900D98
:100D7000A49F800D911D11240895B7FF0C94B20615
:100D80000E94B206821B930B0895A1E21A2EAA1BA1
:100D9000BB1BFD010DC0AA1FBB1FEE1FFF1FA2172B
:100DA000B307E407F50720F0A21BB30BE40BF50B28
:100DB000661F771F881F991F1A9469F760957095B1
:100DC000809590959B01AC01BD01CF010895A29F34
:100DD000B001B39FC001A39F700D811D1124911D0F
:100DE000B29F700D811D1124911D0895991B79E00A
:100DF00004C0991F961708F0961B881F7A95C9F7AB
:100E0000809508950E94E706B7FF0895821B930B13
:100E10000895EE0FFF1F0590F491E02D0994F894CA
:020E2000FFCF02
:100E220000000000CF029301C0011C038D02CF011C
:020E3200E301DA
:00000001FF
