:100000000C9462000C948A000C948A000C948A0070
:100010000C948A000C948A000C948A000C948A0038
:100020000C948A000C948A000C948A000C948A0028
:100030000C948A000C948A000C948A000C948A0018
:100040000C94E0020C948A000C9450030C942A0344
:100050000C948A000C948A000C948A000C948A00F8
:100060000C948A000C948A000000000023002600F3
:10007000290000000000240027002A0000000000E2
:10008000250028002B0004040404040404040202D4
:100090000202020203030303030301020408102007
:1000A0004080010204081020010204081020000012
:1000B0000008000201000003040700000000000027
:1000C0000000C80411241FBECFEFD8E0DEBFCDBFB3
:1000D00011E0A0E0B1E0E8EAFAE002C005900D927C
:1000E000AE31B107D9F721E0AEE1B1E001C01D9218
:1000F000A53CB207E1F710E0C2E6D0E004C02197CA
:10010000FE010E944C05C136D107C9F70E94820347
:100110000C9452050C940000833081F028F4813057
:1001200099F08230A9F008958730A9F08830C9F09D
:100130008430B1F4809180008F7D03C08091800075
:100140008F7780938000089584B58F7784BD08955C
:1001500084B58F7DFBCF8091B0008F778093B00006
:1001600008958091B0008F7DF9CF1F93CF93DF93D7
:10017000EBEBF0E09491E7EAF0E0D491E3E9F0E012
:10018000C491CC23B9F0182F992319F0892F0E941C
:100190008C00EC2FF0E0EE0FFF1FE458FF4FA5910D
:1001A000B4918FB7F894EC91111108C0D095DE236B
:1001B000DC938FBFDF91CF911F910895DE2BF8CF95
:1001C000CF93DF9390E0FC01E656FF4F24918A57CE
:1001D0009F4FFC0184918823D1F090E0880F991FF4
:1001E000FC01EE58FF4FA591B491FC01E458FF4F7C
:1001F000C591D49161110EC09FB7F8948C91E22FF4
:10020000E0958E238C932881E223E8839FBFDF91C2
:10021000CF9108958FB7F894EC91E22BEC938FBFB8
:10022000F6CF8E3008F08E508770806480937C000B
:1002300080917A00806480937A0080917A0086FDB4
:10024000FCCF809178009091790008953FB7F894A1
:100250008091240190912501A0912601B091270160
:1002600026B5A89B05C02F3F19F00196A11DB11D11
:100270003FBFBA2FA92F982F8827BC01CD01620F4D
:10028000711D811D911D42E0660F771F881F991F08
:100290004A95D1F70895AF92BF92CF92DF92EF9235
:1002A000FF920F931F93CF93DF936C017B018B0120
:1002B000040F151FEB015E01AE18BF08C017D10770
:1002C00059F06991D601ED91FC910190F081E02DFA
:1002D000C6010995892B79F7C501DF91CF911F914F
:1002E0000F91FF90EF90DF90CF90BF90AF90089567
:1002F000FC01538D448D252F30E0842F90E0821B2C
:10030000930B541710F0CF96089501970895FC01B0
:10031000918D828D981761F0A28DAE0FBF2FB11D08
:100320005D968C91928D9F5F9F73928F90E0089560
:100330008FEF9FEF0895FC01918D828D981731F01A
:10034000828DE80FF11D858D90E008958FEF9FEF6E
:100350000895FC01918D228D892F90E0805C9F4F44
:10036000821B91098F739927089588E291E00E947A
:10037000A90121E0892B09F420E0822F089580E073
:1003800090E0892B29F00E94B50181110C940000A6
:100390000895FC01A48DA80FB92FB11DA35ABF4F1A
:1003A0002C91848D90E001968F739927848FA68974
:1003B000B7892C93A089B1898C91837080648C93C8
:1003C000938D848D981306C00288F389E02D808177
:1003D0008F7D80830895EF92FF920F931F93CF93A9
:1003E000DF93EC0181E0888F9B8D8C8D98131AC070
:1003F000E889F989808185FF15C09FB7F894EE8957
:10040000FF896083E889F9898081837080648083B3
:100410009FBF81E090E0DF91CF911F910F91FF90FE
:10042000EF900895F62E0B8D10E00F5F1F4F0F73A6
:100430001127E02E8C8D8E110CC00FB607FCFACF61
:10044000E889F989808185FFF5CFCE010E94C90135
:10045000F1CFEB8DEC0FFD2FF11DE35AFF4FF08232
:100460009FB7F8940B8FEA89FB8980818062CFCF98
:10047000CF93DF93EC01888D8823B9F0AA89BB89DB
:10048000E889F9898C9185FD03C0808186FD0DC0C6
:100490000FB607FCF7CF8C9185FFF2CF808185FFE7
:1004A000EDCFCE010E94C901E9CFDF91CF91089530
:1004B000FC0101900020E9F73197AF01481B590B6F
:1004C000BC0188E291E00C944B018F929F92AF9215
:1004D000BF92CF92DF92EF92FF920F931F93CF9331
:1004E000DF93CDB7DEB7A1970FB6F894DEBF0FBE8E
:1004F000CDBF6B017C01F7FE41C06DE288E291E067
:100500000E94EB018C0122273327A9012C193D09F8
:100510004E095F0919A2CE0181967C019AE0892ECD
:10052000912CA12CB12CCA01B901A50194010E9402
:100530001405605DF70162937F01211531054105C6
:10054000510589F790E080E0309719F0CF010E94C3
:100550005802800F911FA1960FB6F894DEBF0FBE10
:10056000CDBFDF91CF911F910F91FF90EF90DF9062
:10057000CF90BF90AF909F908F900895AC019B015A
:1005800019A28E010F5D1F4F8AE0C82ED12CE12CDD
:10059000F12CCA01B901A70196010E941405605D02
:1005A000F80162938F01211531054105510589F745
:1005B00090E080E0309779F2CF010E945802CBCFD3
:1005C0001F920F920FB60F9211242F933F938F9388
:1005D0009F93AF93BF938091200190912101A091AF
:1005E0002201B091230130911F0123E0230F2D3709
:1005F00058F50196A11DB11D20931F018093200184
:1006000090932101A0932201B093230180912401B2
:1006100090912501A0912601B09127010196A11D7D
:10062000B11D8093240190932501A0932601B093DE
:100630002701BF91AF919F918F913F912F910F9083
:100640000FBE0F901F90189526E8230F0296A11D4C
:10065000B11DD2CF1F920F920FB60F9211242F937C
:100660003F934F935F936F937F938F939F93AF933A
:10067000BF93EF93FF9388E291E00E94C901FF913D
:10068000EF91BF91AF919F918F917F916F915F910A
:100690004F913F912F910F900FBE0F901F90189583
:1006A0001F920F920FB60F9211242F938F939F9347
:1006B000EF93FF93E0913801F09139018081E0914F
:1006C0003E01F0913F0182FD1BC09081809141016C
:1006D0008F5F8F7320914201821741F0E0914101B9
:1006E000F0E0E85DFE4F958F80934101FF91EF911F
:1006F0009F918F912F910F900FBE0F901F90189583
:100700008081F4CF789484B5826084BD84B58160A3
:1007100084BD85B5826085BD85B5816085BD8091CC
:100720006E00816080936E00109281008091810044
:10073000826080938100809181008160809381003C
:10074000809180008160809380008091B1008460FE
:100750008093B1008091B00081608093B00080915F
:100760007A00846080937A0080917A00826080931E
:100770007A0080917A00816080937A0080917A007B
:10078000806880937A001092C100E0913801F09166
:10079000390182E08083E0913401F09135011082CB
:1007A000E0913601F09137018FEC80831092400187
:1007B000E0913C01F0913D0186E08083E0913A01B7
:1007C000F0913B01808180618083E0913A01F0915A
:1007D0003B01808188608083E0913A01F0913B0188
:1007E000808180688083E0913A01F0913B018081B3
:1007F0008F7D808360E08EE00E94E00060E08FE00B
:100800000E94E00060E087E00E94E00061E08DE08F
:100810000E94E00044244A9423E0522E612C712C63
:1008200035EB232E30E0332EC0E0D0E08EE00E9486
:1008300011017C018FE00E9411012FEF30E0DC01FB
:100840000E944505A30192010E94F5044901F101AE
:100850008491E1EAF0E01491EDE8F0E004910111F7
:1008600083C080911E01F1E08F2780931E0110E06C
:1008700000E080911E0181110DC02FEF30E0D70103
:100880000E944505A30192010E94F50430930101E5
:1008900020930001909203018092020110930501C0
:1008A000009304016091000170910101072E000C7A
:1008B000880B990B0E94650288E191E00E94580222
:1008C0006091020170910301072E000C880B990BB7
:1008D0000E94650288E191E00E9458026091040143
:1008E00070910501072E000C880B990B0E94650280
:1008F0008AE191E00E94580280911E01882309F448
:1009000045C081E00E94B5000E9426014B015C01B8
:1009100084EFC82EDD24D394E12CF12C0E94260113
:10092000681979098A099B09683E73408105910518
:10093000A8F321E0C21AD108E108F10888EE880E78
:1009400083E0981EA11CB11CC114D104E104F10480
:1009500029F7209709F46ACF0E94B501882309F48A
:1009600065CF0E94000062CF81110E948C00E02FB1
:10097000F0E0EE0FFF1FE859FF4FA591B4918C9165
:10098000182309F46ECF01E010E073CF80E0BACFF6
:10099000E8E2F1E01382128288EE93E0A0E0B0E09A
:1009A00084839583A683B7838AE091E091838083D3
:1009B00085EC90E09587848784EC90E09787868724
:1009C00080EC90E0918B808B81EC90E0938B828B1C
:1009D00082EC90E0958B848B86EC90E0978B868BF5
:1009E000118E128E138E148E0895052E97FB1EF411
:1009F00000940E940C0557FD07D00E94140507FCC7
:100A000003D04EF40C940C055095409530952195EB
:100A10003F4F4F4F5F4F089590958095709561952A
:100A20007F4F8F4F9F4F0895A1E21A2EAA1BBB1B29
:100A3000FD010DC0AA1FBB1FEE1FFF1FA217B307AA
:100A4000E407F50720F0A21BB30BE40BF50B661FC0
:100A5000771F881F991F1A9469F760957095809584
:100A600090959B01AC01BD01CF010895A29FB001FB
:100A7000B39FC001A39F700D811D1124911DB29FD2
:100A8000700D811D1124911D08950E943605B7FF38
:100A90000895821B930B0895EE0FFF1F0590F491AC
:080AA000E02D0994F894FFCF4A
:100AA80000020002010000000000EB014B01780188
:0E0AB8003802A90187019B012C000D0A0000E5
:00000001FF
